{
	"data": {
		"bytecode": {
			"linkReferences": {},
			"object": "608060405260015f806101000a81548160ff0219169083151502179055506040518060400160405280600181526020016040518060400160405280600481526020017f5061746f0000000000000000000000000000000000000000000000000000000081525081525060025f820151815f0155602082015181600101908162000089919062000303565b50505034801562000098575f80fd5b50620003e7565b5f81519050919050565b7f4e487b71000000000000000000000000000000000000000000000000000000005f52604160045260245ffd5b7f4e487b71000000000000000000000000000000000000000000000000000000005f52602260045260245ffd5b5f60028204905060018216806200011b57607f821691505b602082108103620001315762000130620000d6565b5b50919050565b5f819050815f5260205f209050919050565b5f6020601f8301049050919050565b5f82821b905092915050565b5f60088302620001957fffffffffffffffffffffffffffffffffffffffffffffffffffffffffffffffff8262000158565b620001a1868362000158565b95508019841693508086168417925050509392505050565b5f819050919050565b5f819050919050565b5f620001eb620001e5620001df84620001b9565b620001c2565b620001b9565b9050919050565b5f819050919050565b6200020683620001cb565b6200021e6200021582620001f2565b84845462000164565b825550505050565b5f90565b6200023462000226565b62000241818484620001fb565b505050565b5b8181101562000268576200025c5f826200022a565b60018101905062000247565b5050565b601f821115620002b757620002818162000137565b6200028c8462000149565b810160208510156200029c578190505b620002b4620002ab8562000149565b83018262000246565b50505b505050565b5f82821c905092915050565b5f620002d95f1984600802620002bc565b1980831691505092915050565b5f620002f38383620002c8565b9150826002028217905092915050565b6200030e826200009f565b67ffffffffffffffff8111156200032a5762000329620000a9565b5b62000336825462000103565b620003438282856200026c565b5f60209050601f83116001811462000379575f841562000364578287015190505b620003708582620002e6565b865550620003df565b601f198416620003898662000137565b5f5b82811015620003b2578489015182556001820191506020850194506020810190506200038b565b86831015620003d25784890151620003ce601f891682620002c8565b8355505b6001600288020188555050505b505050505050565b6109b580620003f55f395ff3fe608060405234801561000f575f80fd5b5060043610610060575f3560e01c80632ebce63114610064578063460f51a91461009557806369404ebd146100b45780636f760f41146100d05780638bab8dd5146100ec578063a009491b1461011c575b5f80fd5b61007e6004803603810190610079919061038e565b61013a565b60405161008c929190610452565b60405180910390f35b61009d6101ef565b6040516100ab929190610452565b60405180910390f35b6100ce60048036038101906100c9919061038e565b610286565b005b6100ea60048036038101906100e591906105ac565b610290565b005b61010660048036038101906101019190610606565b610314565b604051610113919061064d565b60405180910390f35b610124610341565b604051610131919061064d565b60405180910390f35b60048181548110610149575f80fd5b905f5260205f2090600202015f91509050805f01549080600101805461016e90610693565b80601f016020809104026020016040519081016040528092919081815260200182805461019a90610693565b80156101e55780601f106101bc576101008083540402835291602001916101e5565b820191905f5260205f20905b8154815290600101906020018083116101c857829003601f168201915b5050505050905082565b6002805f01549080600101805461020590610693565b80601f016020809104026020016040519081016040528092919081815260200182805461023190610693565b801561027c5780601f106102535761010080835404028352916020019161027c565b820191905f5260205f20905b81548152906001019060200180831161025f57829003601f168201915b5050505050905082565b8060018190555050565b6004604051806040016040528083815260200184815250908060018154018082558091505060019003905f5260205f2090600202015f909190919091505f820151815f015560208201518160010190816102ea9190610860565b505050806005836040516102fe9190610969565b9081526020016040518091039020819055505050565b6005818051602081018201805184825260208301602085012081835280955050505050505f915090505481565b5f600154905090565b5f604051905090565b5f80fd5b5f80fd5b5f819050919050565b61036d8161035b565b8114610377575f80fd5b50565b5f8135905061038881610364565b92915050565b5f602082840312156103a3576103a2610353565b5b5f6103b08482850161037a565b91505092915050565b6103c28161035b565b82525050565b5f81519050919050565b5f82825260208201905092915050565b5f5b838110156103ff5780820151818401526020810190506103e4565b5f8484015250505050565b5f601f19601f8301169050919050565b5f610424826103c8565b61042e81856103d2565b935061043e8185602086016103e2565b6104478161040a565b840191505092915050565b5f6040820190506104655f8301856103b9565b8181036020830152610477818461041a565b90509392505050565b5f80fd5b5f80fd5b7f4e487b71000000000000000000000000000000000000000000000000000000005f52604160045260245ffd5b6104be8261040a565b810181811067ffffffffffffffff821117156104dd576104dc610488565b5b80604052505050565b5f6104ef61034a565b90506104fb82826104b5565b919050565b5f67ffffffffffffffff82111561051a57610519610488565b5b6105238261040a565b9050602081019050919050565b828183375f83830152505050565b5f61055061054b84610500565b6104e6565b90508281526020810184848401111561056c5761056b610484565b5b610577848285610530565b509392505050565b5f82601f83011261059357610592610480565b5b81356105a384826020860161053e565b91505092915050565b5f80604083850312156105c2576105c1610353565b5b5f83013567ffffffffffffffff8111156105df576105de610357565b5b6105eb8582860161057f565b92505060206105fc8582860161037a565b9150509250929050565b5f6020828403121561061b5761061a610353565b5b5f82013567ffffffffffffffff81111561063857610637610357565b5b6106448482850161057f565b91505092915050565b5f6020820190506106605f8301846103b9565b92915050565b7f4e487b71000000000000000000000000000000000000000000000000000000005f52602260045260245ffd5b5f60028204905060018216806106aa57607f821691505b6020821081036106bd576106bc610666565b5b50919050565b5f819050815f5260205f209050919050565b5f6020601f8301049050919050565b5f82821b905092915050565b5f6008830261071f7fffffffffffffffffffffffffffffffffffffffffffffffffffffffffffffffff826106e4565b61072986836106e4565b95508019841693508086168417925050509392505050565b5f819050919050565b5f61076461075f61075a8461035b565b610741565b61035b565b9050919050565b5f819050919050565b61077d8361074a565b6107916107898261076b565b8484546106f0565b825550505050565b5f90565b6107a5610799565b6107b0818484610774565b505050565b5b818110156107d3576107c85f8261079d565b6001810190506107b6565b5050565b601f821115610818576107e9816106c3565b6107f2846106d5565b81016020851015610801578190505b61081561080d856106d5565b8301826107b5565b50505b505050565b5f82821c905092915050565b5f6108385f198460080261081d565b1980831691505092915050565b5f6108508383610829565b9150826002028217905092915050565b610869826103c8565b67ffffffffffffffff81111561088257610881610488565b5b61088c8254610693565b6108978282856107d7565b5f60209050601f8311600181146108c8575f84156108b6578287015190505b6108c08582610845565b865550610927565b601f1984166108d6866106c3565b5f5b828110156108fd578489015182556001820191506020850194506020810190506108d8565b8683101561091a5784890151610916601f891682610829565b8355505b6001600288020188555050505b505050505050565b5f81905092915050565b5f610943826103c8565b61094d818561092f565b935061095d8185602086016103e2565b80840191505092915050565b5f6109748284610939565b91508190509291505056fea26469706673582212206c6d4a8392c52eaf34ed5927eca524c2d29e4708a5388719c4e3aead774bd7b964736f6c63430008180033",
			"opcodes": "PUSH1 0x80 PUSH1 0x40 MSTORE PUSH1 0x1 PUSH0 DUP1 PUSH2 0x100 EXP DUP2 SLOAD DUP2 PUSH1 0xFF MUL NOT AND SWAP1 DUP4 ISZERO ISZERO MUL OR SWAP1 SSTORE POP PUSH1 0x40 MLOAD DUP1 PUSH1 0x40 ADD PUSH1 0x40 MSTORE DUP1 PUSH1 0x1 DUP2 MSTORE PUSH1 0x20 ADD PUSH1 0x40 MLOAD DUP1 PUSH1 0x40 ADD PUSH1 0x40 MSTORE DUP1 PUSH1 0x4 DUP2 MSTORE PUSH1 0x20 ADD PUSH32 0x5061746F00000000000000000000000000000000000000000000000000000000 DUP2 MSTORE POP DUP2 MSTORE POP PUSH1 0x2 PUSH0 DUP3 ADD MLOAD DUP2 PUSH0 ADD SSTORE PUSH1 0x20 DUP3 ADD MLOAD DUP2 PUSH1 0x1 ADD SWAP1 DUP2 PUSH3 0x89 SWAP2 SWAP1 PUSH3 0x303 JUMP JUMPDEST POP POP POP CALLVALUE DUP1 ISZERO PUSH3 0x98 JUMPI PUSH0 DUP1 REVERT JUMPDEST POP PUSH3 0x3E7 JUMP JUMPDEST PUSH0 DUP2 MLOAD SWAP1 POP SWAP2 SWAP1 POP JUMP JUMPDEST PUSH32 0x4E487B7100000000000000000000000000000000000000000000000000000000 PUSH0 MSTORE PUSH1 0x41 PUSH1 0x4 MSTORE PUSH1 0x24 PUSH0 REVERT JUMPDEST PUSH32 0x4E487B7100000000000000000000000000000000000000000000000000000000 PUSH0 MSTORE PUSH1 0x22 PUSH1 0x4 MSTORE PUSH1 0x24 PUSH0 REVERT JUMPDEST PUSH0 PUSH1 0x2 DUP3 DIV SWAP1 POP PUSH1 0x1 DUP3 AND DUP1 PUSH3 0x11B JUMPI PUSH1 0x7F DUP3 AND SWAP2 POP JUMPDEST PUSH1 0x20 DUP3 LT DUP2 SUB PUSH3 0x131 JUMPI PUSH3 0x130 PUSH3 0xD6 JUMP JUMPDEST JUMPDEST POP SWAP2 SWAP1 POP JUMP JUMPDEST PUSH0 DUP2 SWAP1 POP DUP2 PUSH0 MSTORE PUSH1 0x20 PUSH0 KECCAK256 SWAP1 POP SWAP2 SWAP1 POP JUMP JUMPDEST PUSH0 PUSH1 0x20 PUSH1 0x1F DUP4 ADD DIV SWAP1 POP SWAP2 SWAP1 POP JUMP JUMPDEST PUSH0 DUP3 DUP3 SHL SWAP1 POP SWAP3 SWAP2 POP POP JUMP JUMPDEST PUSH0 PUSH1 0x8 DUP4 MUL PUSH3 0x195 PUSH32 0xFFFFFFFFFFFFFFFFFFFFFFFFFFFFFFFFFFFFFFFFFFFFFFFFFFFFFFFFFFFFFFFF DUP3 PUSH3 0x158 JUMP JUMPDEST PUSH3 0x1A1 DUP7 DUP4 PUSH3 0x158 JUMP JUMPDEST SWAP6 POP DUP1 NOT DUP5 AND SWAP4 POP DUP1 DUP7 AND DUP5 OR SWAP3 POP POP POP SWAP4 SWAP3 POP POP POP JUMP JUMPDEST PUSH0 DUP2 SWAP1 POP SWAP2 SWAP1 POP JUMP JUMPDEST PUSH0 DUP2 SWAP1 POP SWAP2 SWAP1 POP JUMP JUMPDEST PUSH0 PUSH3 0x1EB PUSH3 0x1E5 PUSH3 0x1DF DUP5 PUSH3 0x1B9 JUMP JUMPDEST PUSH3 0x1C2 JUMP JUMPDEST PUSH3 0x1B9 JUMP JUMPDEST SWAP1 POP SWAP2 SWAP1 POP JUMP JUMPDEST PUSH0 DUP2 SWAP1 POP SWAP2 SWAP1 POP JUMP JUMPDEST PUSH3 0x206 DUP4 PUSH3 0x1CB JUMP JUMPDEST PUSH3 0x21E PUSH3 0x215 DUP3 PUSH3 0x1F2 JUMP JUMPDEST DUP5 DUP5 SLOAD PUSH3 0x164 JUMP JUMPDEST DUP3 SSTORE POP POP POP POP JUMP JUMPDEST PUSH0 SWAP1 JUMP JUMPDEST PUSH3 0x234 PUSH3 0x226 JUMP JUMPDEST PUSH3 0x241 DUP2 DUP5 DUP5 PUSH3 0x1FB JUMP JUMPDEST POP POP POP JUMP JUMPDEST JUMPDEST DUP2 DUP2 LT ISZERO PUSH3 0x268 JUMPI PUSH3 0x25C PUSH0 DUP3 PUSH3 0x22A JUMP JUMPDEST PUSH1 0x1 DUP2 ADD SWAP1 POP PUSH3 0x247 JUMP JUMPDEST POP POP JUMP JUMPDEST PUSH1 0x1F DUP3 GT ISZERO PUSH3 0x2B7 JUMPI PUSH3 0x281 DUP2 PUSH3 0x137 JUMP JUMPDEST PUSH3 0x28C DUP5 PUSH3 0x149 JUMP JUMPDEST DUP2 ADD PUSH1 0x20 DUP6 LT ISZERO PUSH3 0x29C JUMPI DUP2 SWAP1 POP JUMPDEST PUSH3 0x2B4 PUSH3 0x2AB DUP6 PUSH3 0x149 JUMP JUMPDEST DUP4 ADD DUP3 PUSH3 0x246 JUMP JUMPDEST POP POP JUMPDEST POP POP POP JUMP JUMPDEST PUSH0 DUP3 DUP3 SHR SWAP1 POP SWAP3 SWAP2 POP POP JUMP JUMPDEST PUSH0 PUSH3 0x2D9 PUSH0 NOT DUP5 PUSH1 0x8 MUL PUSH3 0x2BC JUMP JUMPDEST NOT DUP1 DUP4 AND SWAP2 POP POP SWAP3 SWAP2 POP POP JUMP JUMPDEST PUSH0 PUSH3 0x2F3 DUP4 DUP4 PUSH3 0x2C8 JUMP JUMPDEST SWAP2 POP DUP3 PUSH1 0x2 MUL DUP3 OR SWAP1 POP SWAP3 SWAP2 POP POP JUMP JUMPDEST PUSH3 0x30E DUP3 PUSH3 0x9F JUMP JUMPDEST PUSH8 0xFFFFFFFFFFFFFFFF DUP2 GT ISZERO PUSH3 0x32A JUMPI PUSH3 0x329 PUSH3 0xA9 JUMP JUMPDEST JUMPDEST PUSH3 0x336 DUP3 SLOAD PUSH3 0x103 JUMP JUMPDEST PUSH3 0x343 DUP3 DUP3 DUP6 PUSH3 0x26C JUMP JUMPDEST PUSH0 PUSH1 0x20 SWAP1 POP PUSH1 0x1F DUP4 GT PUSH1 0x1 DUP2 EQ PUSH3 0x379 JUMPI PUSH0 DUP5 ISZERO PUSH3 0x364 JUMPI DUP3 DUP8 ADD MLOAD SWAP1 POP JUMPDEST PUSH3 0x370 DUP6 DUP3 PUSH3 0x2E6 JUMP JUMPDEST DUP7 SSTORE POP PUSH3 0x3DF JUMP JUMPDEST PUSH1 0x1F NOT DUP5 AND PUSH3 0x389 DUP7 PUSH3 0x137 JUMP JUMPDEST PUSH0 JUMPDEST DUP3 DUP2 LT ISZERO PUSH3 0x3B2 JUMPI DUP5 DUP10 ADD MLOAD DUP3 SSTORE PUSH1 0x1 DUP3 ADD SWAP2 POP PUSH1 0x20 DUP6 ADD SWAP5 POP PUSH1 0x20 DUP2 ADD SWAP1 POP PUSH3 0x38B JUMP JUMPDEST DUP7 DUP4 LT ISZERO PUSH3 0x3D2 JUMPI DUP5 DUP10 ADD MLOAD PUSH3 0x3CE PUSH1 0x1F DUP10 AND DUP3 PUSH3 0x2C8 JUMP JUMPDEST DUP4 SSTORE POP JUMPDEST PUSH1 0x1 PUSH1 0x2 DUP9 MUL ADD DUP9 SSTORE POP POP POP JUMPDEST POP POP POP POP POP POP JUMP JUMPDEST PUSH2 0x9B5 DUP1 PUSH3 0x3F5 PUSH0 CODECOPY PUSH0 RETURN INVALID PUSH1 0x80 PUSH1 0x40 MSTORE CALLVALUE DUP1 ISZERO PUSH2 0xF JUMPI PUSH0 DUP1 REVERT JUMPDEST POP PUSH1 0x4 CALLDATASIZE LT PUSH2 0x60 JUMPI PUSH0 CALLDATALOAD PUSH1 0xE0 SHR DUP1 PUSH4 0x2EBCE631 EQ PUSH2 0x64 JUMPI DUP1 PUSH4 0x460F51A9 EQ PUSH2 0x95 JUMPI DUP1 PUSH4 0x69404EBD EQ PUSH2 0xB4 JUMPI DUP1 PUSH4 0x6F760F41 EQ PUSH2 0xD0 JUMPI DUP1 PUSH4 0x8BAB8DD5 EQ PUSH2 0xEC JUMPI DUP1 PUSH4 0xA009491B EQ PUSH2 0x11C JUMPI JUMPDEST PUSH0 DUP1 REVERT JUMPDEST PUSH2 0x7E PUSH1 0x4 DUP1 CALLDATASIZE SUB DUP2 ADD SWAP1 PUSH2 0x79 SWAP2 SWAP1 PUSH2 0x38E JUMP JUMPDEST PUSH2 0x13A JUMP JUMPDEST PUSH1 0x40 MLOAD PUSH2 0x8C SWAP3 SWAP2 SWAP1 PUSH2 0x452 JUMP JUMPDEST PUSH1 0x40 MLOAD DUP1 SWAP2 SUB SWAP1 RETURN JUMPDEST PUSH2 0x9D PUSH2 0x1EF JUMP JUMPDEST PUSH1 0x40 MLOAD PUSH2 0xAB SWAP3 SWAP2 SWAP1 PUSH2 0x452 JUMP JUMPDEST PUSH1 0x40 MLOAD DUP1 SWAP2 SUB SWAP1 RETURN JUMPDEST PUSH2 0xCE PUSH1 0x4 DUP1 CALLDATASIZE SUB DUP2 ADD SWAP1 PUSH2 0xC9 SWAP2 SWAP1 PUSH2 0x38E JUMP JUMPDEST PUSH2 0x286 JUMP JUMPDEST STOP JUMPDEST PUSH2 0xEA PUSH1 0x4 DUP1 CALLDATASIZE SUB DUP2 ADD SWAP1 PUSH2 0xE5 SWAP2 SWAP1 PUSH2 0x5AC JUMP JUMPDEST PUSH2 0x290 JUMP JUMPDEST STOP JUMPDEST PUSH2 0x106 PUSH1 0x4 DUP1 CALLDATASIZE SUB DUP2 ADD SWAP1 PUSH2 0x101 SWAP2 SWAP1 PUSH2 0x606 JUMP JUMPDEST PUSH2 0x314 JUMP JUMPDEST PUSH1 0x40 MLOAD PUSH2 0x113 SWAP2 SWAP1 PUSH2 0x64D JUMP JUMPDEST PUSH1 0x40 MLOAD DUP1 SWAP2 SUB SWAP1 RETURN JUMPDEST PUSH2 0x124 PUSH2 0x341 JUMP JUMPDEST PUSH1 0x40 MLOAD PUSH2 0x131 SWAP2 SWAP1 PUSH2 0x64D JUMP JUMPDEST PUSH1 0x40 MLOAD DUP1 SWAP2 SUB SWAP1 RETURN JUMPDEST PUSH1 0x4 DUP2 DUP2 SLOAD DUP2 LT PUSH2 0x149 JUMPI PUSH0 DUP1 REVERT JUMPDEST SWAP1 PUSH0 MSTORE PUSH1 0x20 PUSH0 KECCAK256 SWAP1 PUSH1 0x2 MUL ADD PUSH0 SWAP2 POP SWAP1 POP DUP1 PUSH0 ADD SLOAD SWAP1 DUP1 PUSH1 0x1 ADD DUP1 SLOAD PUSH2 0x16E SWAP1 PUSH2 0x693 JUMP JUMPDEST DUP1 PUSH1 0x1F ADD PUSH1 0x20 DUP1 SWAP2 DIV MUL PUSH1 0x20 ADD PUSH1 0x40 MLOAD SWAP1 DUP2 ADD PUSH1 0x40 MSTORE DUP1 SWAP3 SWAP2 SWAP1 DUP2 DUP2 MSTORE PUSH1 0x20 ADD DUP3 DUP1 SLOAD PUSH2 0x19A SWAP1 PUSH2 0x693 JUMP JUMPDEST DUP1 ISZERO PUSH2 0x1E5 JUMPI DUP1 PUSH1 0x1F LT PUSH2 0x1BC JUMPI PUSH2 0x100 DUP1 DUP4 SLOAD DIV MUL DUP4 MSTORE SWAP2 PUSH1 0x20 ADD SWAP2 PUSH2 0x1E5 JUMP JUMPDEST DUP3 ADD SWAP2 SWAP1 PUSH0 MSTORE PUSH1 0x20 PUSH0 KECCAK256 SWAP1 JUMPDEST DUP2 SLOAD DUP2 MSTORE SWAP1 PUSH1 0x1 ADD SWAP1 PUSH1 0x20 ADD DUP1 DUP4 GT PUSH2 0x1C8 JUMPI DUP3 SWAP1 SUB PUSH1 0x1F AND DUP3 ADD SWAP2 JUMPDEST POP POP POP POP POP SWAP1 POP DUP3 JUMP JUMPDEST PUSH1 0x2 DUP1 PUSH0 ADD SLOAD SWAP1 DUP1 PUSH1 0x1 ADD DUP1 SLOAD PUSH2 0x205 SWAP1 PUSH2 0x693 JUMP JUMPDEST DUP1 PUSH1 0x1F ADD PUSH1 0x20 DUP1 SWAP2 DIV MUL PUSH1 0x20 ADD PUSH1 0x40 MLOAD SWAP1 DUP2 ADD PUSH1 0x40 MSTORE DUP1 SWAP3 SWAP2 SWAP1 DUP2 DUP2 MSTORE PUSH1 0x20 ADD DUP3 DUP1 SLOAD PUSH2 0x231 SWAP1 PUSH2 0x693 JUMP JUMPDEST DUP1 ISZERO PUSH2 0x27C JUMPI DUP1 PUSH1 0x1F LT PUSH2 0x253 JUMPI PUSH2 0x100 DUP1 DUP4 SLOAD DIV MUL DUP4 MSTORE SWAP2 PUSH1 0x20 ADD SWAP2 PUSH2 0x27C JUMP JUMPDEST DUP3 ADD SWAP2 SWAP1 PUSH0 MSTORE PUSH1 0x20 PUSH0 KECCAK256 SWAP1 JUMPDEST DUP2 SLOAD DUP2 MSTORE SWAP1 PUSH1 0x1 ADD SWAP1 PUSH1 0x20 ADD DUP1 DUP4 GT PUSH2 0x25F JUMPI DUP3 SWAP1 SUB PUSH1 0x1F AND DUP3 ADD SWAP2 JUMPDEST POP POP POP POP POP SWAP1 POP DUP3 JUMP JUMPDEST DUP1 PUSH1 0x1 DUP2 SWAP1 SSTORE POP POP JUMP JUMPDEST PUSH1 0x4 PUSH1 0x40 MLOAD DUP1 PUSH1 0x40 ADD PUSH1 0x40 MSTORE DUP1 DUP4 DUP2 MSTORE PUSH1 0x20 ADD DUP5 DUP2 MSTORE POP SWAP1 DUP1 PUSH1 0x1 DUP2 SLOAD ADD DUP1 DUP3 SSTORE DUP1 SWAP2 POP POP PUSH1 0x1 SWAP1 SUB SWAP1 PUSH0 MSTORE PUSH1 0x20 PUSH0 KECCAK256 SWAP1 PUSH1 0x2 MUL ADD PUSH0 SWAP1 SWAP2 SWAP1 SWAP2 SWAP1 SWAP2 POP PUSH0 DUP3 ADD MLOAD DUP2 PUSH0 ADD SSTORE PUSH1 0x20 DUP3 ADD MLOAD DUP2 PUSH1 0x1 ADD SWAP1 DUP2 PUSH2 0x2EA SWAP2 SWAP1 PUSH2 0x860 JUMP JUMPDEST POP POP POP DUP1 PUSH1 0x5 DUP4 PUSH1 0x40 MLOAD PUSH2 0x2FE SWAP2 SWAP1 PUSH2 0x969 JUMP JUMPDEST SWAP1 DUP2 MSTORE PUSH1 0x20 ADD PUSH1 0x40 MLOAD DUP1 SWAP2 SUB SWAP1 KECCAK256 DUP2 SWAP1 SSTORE POP POP POP JUMP JUMPDEST PUSH1 0x5 DUP2 DUP1 MLOAD PUSH1 0x20 DUP2 ADD DUP3 ADD DUP1 MLOAD DUP5 DUP3 MSTORE PUSH1 0x20 DUP4 ADD PUSH1 0x20 DUP6 ADD KECCAK256 DUP2 DUP4 MSTORE DUP1 SWAP6 POP POP POP POP POP POP PUSH0 SWAP2 POP SWAP1 POP SLOAD DUP2 JUMP JUMPDEST PUSH0 PUSH1 0x1 SLOAD SWAP1 POP SWAP1 JUMP JUMPDEST PUSH0 PUSH1 0x40 MLOAD SWAP1 POP SWAP1 JUMP JUMPDEST PUSH0 DUP1 REVERT JUMPDEST PUSH0 DUP1 REVERT JUMPDEST PUSH0 DUP2 SWAP1 POP SWAP2 SWAP1 POP JUMP JUMPDEST PUSH2 0x36D DUP2 PUSH2 0x35B JUMP JUMPDEST DUP2 EQ PUSH2 0x377 JUMPI PUSH0 DUP1 REVERT JUMPDEST POP JUMP JUMPDEST PUSH0 DUP2 CALLDATALOAD SWAP1 POP PUSH2 0x388 DUP2 PUSH2 0x364 JUMP JUMPDEST SWAP3 SWAP2 POP POP JUMP JUMPDEST PUSH0 PUSH1 0x20 DUP3 DUP5 SUB SLT ISZERO PUSH2 0x3A3 JUMPI PUSH2 0x3A2 PUSH2 0x353 JUMP JUMPDEST JUMPDEST PUSH0 PUSH2 0x3B0 DUP5 DUP3 DUP6 ADD PUSH2 0x37A JUMP JUMPDEST SWAP2 POP POP SWAP3 SWAP2 POP POP JUMP JUMPDEST PUSH2 0x3C2 DUP2 PUSH2 0x35B JUMP JUMPDEST DUP3 MSTORE POP POP JUMP JUMPDEST PUSH0 DUP2 MLOAD SWAP1 POP SWAP2 SWAP1 POP JUMP JUMPDEST PUSH0 DUP3 DUP3 MSTORE PUSH1 0x20 DUP3 ADD SWAP1 POP SWAP3 SWAP2 POP POP JUMP JUMPDEST PUSH0 JUMPDEST DUP4 DUP2 LT ISZERO PUSH2 0x3FF JUMPI DUP1 DUP3 ADD MLOAD DUP2 DUP5 ADD MSTORE PUSH1 0x20 DUP2 ADD SWAP1 POP PUSH2 0x3E4 JUMP JUMPDEST PUSH0 DUP5 DUP5 ADD MSTORE POP POP POP POP JUMP JUMPDEST PUSH0 PUSH1 0x1F NOT PUSH1 0x1F DUP4 ADD AND SWAP1 POP SWAP2 SWAP1 POP JUMP JUMPDEST PUSH0 PUSH2 0x424 DUP3 PUSH2 0x3C8 JUMP JUMPDEST PUSH2 0x42E DUP2 DUP6 PUSH2 0x3D2 JUMP JUMPDEST SWAP4 POP PUSH2 0x43E DUP2 DUP6 PUSH1 0x20 DUP7 ADD PUSH2 0x3E2 JUMP JUMPDEST PUSH2 0x447 DUP2 PUSH2 0x40A JUMP JUMPDEST DUP5 ADD SWAP2 POP POP SWAP3 SWAP2 POP POP JUMP JUMPDEST PUSH0 PUSH1 0x40 DUP3 ADD SWAP1 POP PUSH2 0x465 PUSH0 DUP4 ADD DUP6 PUSH2 0x3B9 JUMP JUMPDEST DUP2 DUP2 SUB PUSH1 0x20 DUP4 ADD MSTORE PUSH2 0x477 DUP2 DUP5 PUSH2 0x41A JUMP JUMPDEST SWAP1 POP SWAP4 SWAP3 POP POP POP JUMP JUMPDEST PUSH0 DUP1 REVERT JUMPDEST PUSH0 DUP1 REVERT JUMPDEST PUSH32 0x4E487B7100000000000000000000000000000000000000000000000000000000 PUSH0 MSTORE PUSH1 0x41 PUSH1 0x4 MSTORE PUSH1 0x24 PUSH0 REVERT JUMPDEST PUSH2 0x4BE DUP3 PUSH2 0x40A JUMP JUMPDEST DUP2 ADD DUP2 DUP2 LT PUSH8 0xFFFFFFFFFFFFFFFF DUP3 GT OR ISZERO PUSH2 0x4DD JUMPI PUSH2 0x4DC PUSH2 0x488 JUMP JUMPDEST JUMPDEST DUP1 PUSH1 0x40 MSTORE POP POP POP JUMP JUMPDEST PUSH0 PUSH2 0x4EF PUSH2 0x34A JUMP JUMPDEST SWAP1 POP PUSH2 0x4FB DUP3 DUP3 PUSH2 0x4B5 JUMP JUMPDEST SWAP2 SWAP1 POP JUMP JUMPDEST PUSH0 PUSH8 0xFFFFFFFFFFFFFFFF DUP3 GT ISZERO PUSH2 0x51A JUMPI PUSH2 0x519 PUSH2 0x488 JUMP JUMPDEST JUMPDEST PUSH2 0x523 DUP3 PUSH2 0x40A JUMP JUMPDEST SWAP1 POP PUSH1 0x20 DUP2 ADD SWAP1 POP SWAP2 SWAP1 POP JUMP JUMPDEST DUP3 DUP2 DUP4 CALLDATACOPY PUSH0 DUP4 DUP4 ADD MSTORE POP POP POP JUMP JUMPDEST PUSH0 PUSH2 0x550 PUSH2 0x54B DUP5 PUSH2 0x500 JUMP JUMPDEST PUSH2 0x4E6 JUMP JUMPDEST SWAP1 POP DUP3 DUP2 MSTORE PUSH1 0x20 DUP2 ADD DUP5 DUP5 DUP5 ADD GT ISZERO PUSH2 0x56C JUMPI PUSH2 0x56B PUSH2 0x484 JUMP JUMPDEST JUMPDEST PUSH2 0x577 DUP5 DUP3 DUP6 PUSH2 0x530 JUMP JUMPDEST POP SWAP4 SWAP3 POP POP POP JUMP JUMPDEST PUSH0 DUP3 PUSH1 0x1F DUP4 ADD SLT PUSH2 0x593 JUMPI PUSH2 0x592 PUSH2 0x480 JUMP JUMPDEST JUMPDEST DUP2 CALLDATALOAD PUSH2 0x5A3 DUP5 DUP3 PUSH1 0x20 DUP7 ADD PUSH2 0x53E JUMP JUMPDEST SWAP2 POP POP SWAP3 SWAP2 POP POP JUMP JUMPDEST PUSH0 DUP1 PUSH1 0x40 DUP4 DUP6 SUB SLT ISZERO PUSH2 0x5C2 JUMPI PUSH2 0x5C1 PUSH2 0x353 JUMP JUMPDEST JUMPDEST PUSH0 DUP4 ADD CALLDATALOAD PUSH8 0xFFFFFFFFFFFFFFFF DUP2 GT ISZERO PUSH2 0x5DF JUMPI PUSH2 0x5DE PUSH2 0x357 JUMP JUMPDEST JUMPDEST PUSH2 0x5EB DUP6 DUP3 DUP7 ADD PUSH2 0x57F JUMP JUMPDEST SWAP3 POP POP PUSH1 0x20 PUSH2 0x5FC DUP6 DUP3 DUP7 ADD PUSH2 0x37A JUMP JUMPDEST SWAP2 POP POP SWAP3 POP SWAP3 SWAP1 POP JUMP JUMPDEST PUSH0 PUSH1 0x20 DUP3 DUP5 SUB SLT ISZERO PUSH2 0x61B JUMPI PUSH2 0x61A PUSH2 0x353 JUMP JUMPDEST JUMPDEST PUSH0 DUP3 ADD CALLDATALOAD PUSH8 0xFFFFFFFFFFFFFFFF DUP2 GT ISZERO PUSH2 0x638 JUMPI PUSH2 0x637 PUSH2 0x357 JUMP JUMPDEST JUMPDEST PUSH2 0x644 DUP5 DUP3 DUP6 ADD PUSH2 0x57F JUMP JUMPDEST SWAP2 POP POP SWAP3 SWAP2 POP POP JUMP JUMPDEST PUSH0 PUSH1 0x20 DUP3 ADD SWAP1 POP PUSH2 0x660 PUSH0 DUP4 ADD DUP5 PUSH2 0x3B9 JUMP JUMPDEST SWAP3 SWAP2 POP POP JUMP JUMPDEST PUSH32 0x4E487B7100000000000000000000000000000000000000000000000000000000 PUSH0 MSTORE PUSH1 0x22 PUSH1 0x4 MSTORE PUSH1 0x24 PUSH0 REVERT JUMPDEST PUSH0 PUSH1 0x2 DUP3 DIV SWAP1 POP PUSH1 0x1 DUP3 AND DUP1 PUSH2 0x6AA JUMPI PUSH1 0x7F DUP3 AND SWAP2 POP JUMPDEST PUSH1 0x20 DUP3 LT DUP2 SUB PUSH2 0x6BD JUMPI PUSH2 0x6BC PUSH2 0x666 JUMP JUMPDEST JUMPDEST POP SWAP2 SWAP1 POP JUMP JUMPDEST PUSH0 DUP2 SWAP1 POP DUP2 PUSH0 MSTORE PUSH1 0x20 PUSH0 KECCAK256 SWAP1 POP SWAP2 SWAP1 POP JUMP JUMPDEST PUSH0 PUSH1 0x20 PUSH1 0x1F DUP4 ADD DIV SWAP1 POP SWAP2 SWAP1 POP JUMP JUMPDEST PUSH0 DUP3 DUP3 SHL SWAP1 POP SWAP3 SWAP2 POP POP JUMP JUMPDEST PUSH0 PUSH1 0x8 DUP4 MUL PUSH2 0x71F PUSH32 0xFFFFFFFFFFFFFFFFFFFFFFFFFFFFFFFFFFFFFFFFFFFFFFFFFFFFFFFFFFFFFFFF DUP3 PUSH2 0x6E4 JUMP JUMPDEST PUSH2 0x729 DUP7 DUP4 PUSH2 0x6E4 JUMP JUMPDEST SWAP6 POP DUP1 NOT DUP5 AND SWAP4 POP DUP1 DUP7 AND DUP5 OR SWAP3 POP POP POP SWAP4 SWAP3 POP POP POP JUMP JUMPDEST PUSH0 DUP2 SWAP1 POP SWAP2 SWAP1 POP JUMP JUMPDEST PUSH0 PUSH2 0x764 PUSH2 0x75F PUSH2 0x75A DUP5 PUSH2 0x35B JUMP JUMPDEST PUSH2 0x741 JUMP JUMPDEST PUSH2 0x35B JUMP JUMPDEST SWAP1 POP SWAP2 SWAP1 POP JUMP JUMPDEST PUSH0 DUP2 SWAP1 POP SWAP2 SWAP1 POP JUMP JUMPDEST PUSH2 0x77D DUP4 PUSH2 0x74A JUMP JUMPDEST PUSH2 0x791 PUSH2 0x789 DUP3 PUSH2 0x76B JUMP JUMPDEST DUP5 DUP5 SLOAD PUSH2 0x6F0 JUMP JUMPDEST DUP3 SSTORE POP POP POP POP JUMP JUMPDEST PUSH0 SWAP1 JUMP JUMPDEST PUSH2 0x7A5 PUSH2 0x799 JUMP JUMPDEST PUSH2 0x7B0 DUP2 DUP5 DUP5 PUSH2 0x774 JUMP JUMPDEST POP POP POP JUMP JUMPDEST JUMPDEST DUP2 DUP2 LT ISZERO PUSH2 0x7D3 JUMPI PUSH2 0x7C8 PUSH0 DUP3 PUSH2 0x79D JUMP JUMPDEST PUSH1 0x1 DUP2 ADD SWAP1 POP PUSH2 0x7B6 JUMP JUMPDEST POP POP JUMP JUMPDEST PUSH1 0x1F DUP3 GT ISZERO PUSH2 0x818 JUMPI PUSH2 0x7E9 DUP2 PUSH2 0x6C3 JUMP JUMPDEST PUSH2 0x7F2 DUP5 PUSH2 0x6D5 JUMP JUMPDEST DUP2 ADD PUSH1 0x20 DUP6 LT ISZERO PUSH2 0x801 JUMPI DUP2 SWAP1 POP JUMPDEST PUSH2 0x815 PUSH2 0x80D DUP6 PUSH2 0x6D5 JUMP JUMPDEST DUP4 ADD DUP3 PUSH2 0x7B5 JUMP JUMPDEST POP POP JUMPDEST POP POP POP JUMP JUMPDEST PUSH0 DUP3 DUP3 SHR SWAP1 POP SWAP3 SWAP2 POP POP JUMP JUMPDEST PUSH0 PUSH2 0x838 PUSH0 NOT DUP5 PUSH1 0x8 MUL PUSH2 0x81D JUMP JUMPDEST NOT DUP1 DUP4 AND SWAP2 POP POP SWAP3 SWAP2 POP POP JUMP JUMPDEST PUSH0 PUSH2 0x850 DUP4 DUP4 PUSH2 0x829 JUMP JUMPDEST SWAP2 POP DUP3 PUSH1 0x2 MUL DUP3 OR SWAP1 POP SWAP3 SWAP2 POP POP JUMP JUMPDEST PUSH2 0x869 DUP3 PUSH2 0x3C8 JUMP JUMPDEST PUSH8 0xFFFFFFFFFFFFFFFF DUP2 GT ISZERO PUSH2 0x882 JUMPI PUSH2 0x881 PUSH2 0x488 JUMP JUMPDEST JUMPDEST PUSH2 0x88C DUP3 SLOAD PUSH2 0x693 JUMP JUMPDEST PUSH2 0x897 DUP3 DUP3 DUP6 PUSH2 0x7D7 JUMP JUMPDEST PUSH0 PUSH1 0x20 SWAP1 POP PUSH1 0x1F DUP4 GT PUSH1 0x1 DUP2 EQ PUSH2 0x8C8 JUMPI PUSH0 DUP5 ISZERO PUSH2 0x8B6 JUMPI DUP3 DUP8 ADD MLOAD SWAP1 POP JUMPDEST PUSH2 0x8C0 DUP6 DUP3 PUSH2 0x845 JUMP JUMPDEST DUP7 SSTORE POP PUSH2 0x927 JUMP JUMPDEST PUSH1 0x1F NOT DUP5 AND PUSH2 0x8D6 DUP7 PUSH2 0x6C3 JUMP JUMPDEST PUSH0 JUMPDEST DUP3 DUP2 LT ISZERO PUSH2 0x8FD JUMPI DUP5 DUP10 ADD MLOAD DUP3 SSTORE PUSH1 0x1 DUP3 ADD SWAP2 POP PUSH1 0x20 DUP6 ADD SWAP5 POP PUSH1 0x20 DUP2 ADD SWAP1 POP PUSH2 0x8D8 JUMP JUMPDEST DUP7 DUP4 LT ISZERO PUSH2 0x91A JUMPI DUP5 DUP10 ADD MLOAD PUSH2 0x916 PUSH1 0x1F DUP10 AND DUP3 PUSH2 0x829 JUMP JUMPDEST DUP4 SSTORE POP JUMPDEST PUSH1 0x1 PUSH1 0x2 DUP9 MUL ADD DUP9 SSTORE POP POP POP JUMPDEST POP POP POP POP POP POP JUMP JUMPDEST PUSH0 DUP2 SWAP1 POP SWAP3 SWAP2 POP POP JUMP JUMPDEST PUSH0 PUSH2 0x943 DUP3 PUSH2 0x3C8 JUMP JUMPDEST PUSH2 0x94D DUP2 DUP6 PUSH2 0x92F JUMP JUMPDEST SWAP4 POP PUSH2 0x95D DUP2 DUP6 PUSH1 0x20 DUP7 ADD PUSH2 0x3E2 JUMP JUMPDEST DUP1 DUP5 ADD SWAP2 POP POP SWAP3 SWAP2 POP POP JUMP JUMPDEST PUSH0 PUSH2 0x974 DUP3 DUP5 PUSH2 0x939 JUMP JUMPDEST SWAP2 POP DUP2 SWAP1 POP SWAP3 SWAP2 POP POP JUMP INVALID LOG2 PUSH5 0x6970667358 0x22 SLT KECCAK256 PUSH13 0x6D4A8392C52EAF34ED5927ECA5 0x24 0xC2 0xD2 SWAP15 SELFBALANCE ADDMOD 0xA5 CODESIZE DUP8 NOT 0xC4 0xE3 0xAE 0xAD PUSH24 0x4BD7B964736F6C6343000818003300000000000000000000 "
		},
		"gasEstimates": {
			"creation": {
				"codeDepositCost": "497000",
				"executionCost": "infinite",
				"totalCost": "infinite"
			},
			"external": {
				"Store(uint256)": "22537",
				"addPerson(string,uint256)": "infinite",
				"listOfPeople(uint256)": "infinite",
				"nameToFavoriteNumber(string)": "infinite",
				"pato()": "infinite",
				"retrieveNumber()": "2520"
			}
		},
		"methodIdentifiers": {
			"Store(uint256)": "69404ebd",
			"addPerson(string,uint256)": "6f760f41",
			"listOfPeople(uint256)": "2ebce631",
			"nameToFavoriteNumber(string)": "8bab8dd5",
			"pato()": "460f51a9",
			"retrieveNumber()": "a009491b"
		}
	},
	"abi": [
		{
			"inputs": [
				{
					"internalType": "uint256",
					"name": "_favoriteNumber",
					"type": "uint256"
				}
			],
			"name": "Store",
			"outputs": [],
			"stateMutability": "nonpayable",
			"type": "function"
		},
		{
			"inputs": [
				{
					"internalType": "string",
					"name": "_name",
					"type": "string"
				},
				{
					"internalType": "uint256",
					"name": "_myFavoriteNumber",
					"type": "uint256"
				}
			],
			"name": "addPerson",
			"outputs": [],
			"stateMutability": "nonpayable",
			"type": "function"
		},
		{
			"inputs": [
				{
					"internalType": "uint256",
					"name": "",
					"type": "uint256"
				}
			],
			"name": "listOfPeople",
			"outputs": [
				{
					"internalType": "uint256",
					"name": "myFavoriteNumber",
					"type": "uint256"
				},
				{
					"internalType": "string",
					"name": "name",
					"type": "string"
				}
			],
			"stateMutability": "view",
			"type": "function"
		},
		{
			"inputs": [
				{
					"internalType": "string",
					"name": "",
					"type": "string"
				}
			],
			"name": "nameToFavoriteNumber",
			"outputs": [
				{
					"internalType": "uint256",
					"name": "",
					"type": "uint256"
				}
			],
			"stateMutability": "view",
			"type": "function"
		},
		{
			"inputs": [],
			"name": "pato",
			"outputs": [
				{
					"internalType": "uint256",
					"name": "myFavoriteNumber",
					"type": "uint256"
				},
				{
					"internalType": "string",
					"name": "name",
					"type": "string"
				}
			],
			"stateMutability": "view",
			"type": "function"
		},
		{
			"inputs": [],
			"name": "retrieveNumber",
			"outputs": [
				{
					"internalType": "uint256",
					"name": "",
					"type": "uint256"
				}
			],
			"stateMutability": "view",
			"type": "function"
		}
	]
}