{
	"data": {
		"bytecode": {
			"linkReferences": {},
			"object": "608060405260016000806101000a81548160ff0219169083151502179055506040518060400160405280600181526020016040518060400160405280600481526020017f5061746f0000000000000000000000000000000000000000000000000000000081525081525060026000820151816000015560208201518160010190816200008c91906200031d565b5050503480156200009c57600080fd5b5062000404565b600081519050919050565b7f4e487b7100000000000000000000000000000000000000000000000000000000600052604160045260246000fd5b7f4e487b7100000000000000000000000000000000000000000000000000000000600052602260045260246000fd5b600060028204905060018216806200012557607f821691505b6020821081036200013b576200013a620000dd565b5b50919050565b60008190508160005260206000209050919050565b60006020601f8301049050919050565b600082821b905092915050565b600060088302620001a57fffffffffffffffffffffffffffffffffffffffffffffffffffffffffffffffff8262000166565b620001b1868362000166565b95508019841693508086168417925050509392505050565b6000819050919050565b6000819050919050565b6000620001fe620001f8620001f284620001c9565b620001d3565b620001c9565b9050919050565b6000819050919050565b6200021a83620001dd565b62000232620002298262000205565b84845462000173565b825550505050565b600090565b620002496200023a565b620002568184846200020f565b505050565b5b818110156200027e57620002726000826200023f565b6001810190506200025c565b5050565b601f821115620002cd57620002978162000141565b620002a28462000156565b81016020851015620002b2578190505b620002ca620002c18562000156565b8301826200025b565b50505b505050565b600082821c905092915050565b6000620002f260001984600802620002d2565b1980831691505092915050565b60006200030d8383620002df565b9150826002028217905092915050565b6200032882620000a3565b67ffffffffffffffff811115620003445762000343620000ae565b5b6200035082546200010c565b6200035d82828562000282565b600060209050601f83116001811462000395576000841562000380578287015190505b6200038c8582620002ff565b865550620003fc565b601f198416620003a58662000141565b60005b82811015620003cf57848901518255600182019150602085019450602081019050620003a8565b86831015620003ef5784890151620003eb601f891682620002df565b8355505b6001600288020188555050505b505050505050565b6108d880620004146000396000f3fe608060405234801561001057600080fd5b50600436106100575760003560e01c80632ebce6311461005c578063460f51a91461008d57806369404ebd146100ac5780636f760f41146100c8578063a009491b146100e4575b600080fd5b6100766004803603810190610071919061031c565b610102565b6040516100849291906103e8565b60405180910390f35b6100956101be565b6040516100a39291906103e8565b60405180910390f35b6100c660048036038101906100c1919061031c565b610258565b005b6100e260048036038101906100dd919061054d565b610262565b005b6100ec6102c8565b6040516100f991906105a9565b60405180910390f35b6004818154811061011257600080fd5b906000526020600020906002020160009150905080600001549080600101805461013b906105f3565b80601f0160208091040260200160405190810160405280929190818152602001828054610167906105f3565b80156101b45780601f10610189576101008083540402835291602001916101b4565b820191906000526020600020905b81548152906001019060200180831161019757829003601f168201915b5050505050905082565b60028060000154908060010180546101d5906105f3565b80601f0160208091040260200160405190810160405280929190818152602001828054610201906105f3565b801561024e5780601f106102235761010080835404028352916020019161024e565b820191906000526020600020905b81548152906001019060200180831161023157829003601f168201915b5050505050905082565b8060018190555050565b600460405180604001604052808381526020018481525090806001815401808255809150506001900390600052602060002090600202016000909190919091506000820151816000015560208201518160010190816102c191906107d0565b5050505050565b6000600154905090565b6000604051905090565b600080fd5b600080fd5b6000819050919050565b6102f9816102e6565b811461030457600080fd5b50565b600081359050610316816102f0565b92915050565b600060208284031215610332576103316102dc565b5b600061034084828501610307565b91505092915050565b610352816102e6565b82525050565b600081519050919050565b600082825260208201905092915050565b60005b83811015610392578082015181840152602081019050610377565b60008484015250505050565b6000601f19601f8301169050919050565b60006103ba82610358565b6103c48185610363565b93506103d4818560208601610374565b6103dd8161039e565b840191505092915050565b60006040820190506103fd6000830185610349565b818103602083015261040f81846103af565b90509392505050565b600080fd5b600080fd5b7f4e487b7100000000000000000000000000000000000000000000000000000000600052604160045260246000fd5b61045a8261039e565b810181811067ffffffffffffffff8211171561047957610478610422565b5b80604052505050565b600061048c6102d2565b90506104988282610451565b919050565b600067ffffffffffffffff8211156104b8576104b7610422565b5b6104c18261039e565b9050602081019050919050565b82818337600083830152505050565b60006104f06104eb8461049d565b610482565b90508281526020810184848401111561050c5761050b61041d565b5b6105178482856104ce565b509392505050565b600082601f83011261053457610533610418565b5b81356105448482602086016104dd565b91505092915050565b60008060408385031215610564576105636102dc565b5b600083013567ffffffffffffffff811115610582576105816102e1565b5b61058e8582860161051f565b925050602061059f85828601610307565b9150509250929050565b60006020820190506105be6000830184610349565b92915050565b7f4e487b7100000000000000000000000000000000000000000000000000000000600052602260045260246000fd5b6000600282049050600182168061060b57607f821691505b60208210810361061e5761061d6105c4565b5b50919050565b60008190508160005260206000209050919050565b60006020601f8301049050919050565b600082821b905092915050565b6000600883026106867fffffffffffffffffffffffffffffffffffffffffffffffffffffffffffffffff82610649565b6106908683610649565b95508019841693508086168417925050509392505050565b6000819050919050565b60006106cd6106c86106c3846102e6565b6106a8565b6102e6565b9050919050565b6000819050919050565b6106e7836106b2565b6106fb6106f3826106d4565b848454610656565b825550505050565b600090565b610710610703565b61071b8184846106de565b505050565b5b8181101561073f57610734600082610708565b600181019050610721565b5050565b601f8211156107845761075581610624565b61075e84610639565b8101602085101561076d578190505b61078161077985610639565b830182610720565b50505b505050565b600082821c905092915050565b60006107a760001984600802610789565b1980831691505092915050565b60006107c08383610796565b9150826002028217905092915050565b6107d982610358565b67ffffffffffffffff8111156107f2576107f1610422565b5b6107fc82546105f3565b610807828285610743565b600060209050601f83116001811461083a5760008415610828578287015190505b61083285826107b4565b86555061089a565b601f19841661084886610624565b60005b828110156108705784890151825560018201915060208501945060208101905061084b565b8683101561088d5784890151610889601f891682610796565b8355505b6001600288020188555050505b50505050505056fea2646970667358221220fefc369f5869d1e56a687bd1c3970629be691abeaa7005b10f441eeec506a6a164736f6c63430008120033",
			"opcodes": "PUSH1 0x80 PUSH1 0x40 MSTORE PUSH1 0x1 PUSH1 0x0 DUP1 PUSH2 0x100 EXP DUP2 SLOAD DUP2 PUSH1 0xFF MUL NOT AND SWAP1 DUP4 ISZERO ISZERO MUL OR SWAP1 SSTORE POP PUSH1 0x40 MLOAD DUP1 PUSH1 0x40 ADD PUSH1 0x40 MSTORE DUP1 PUSH1 0x1 DUP2 MSTORE PUSH1 0x20 ADD PUSH1 0x40 MLOAD DUP1 PUSH1 0x40 ADD PUSH1 0x40 MSTORE DUP1 PUSH1 0x4 DUP2 MSTORE PUSH1 0x20 ADD PUSH32 0x5061746F00000000000000000000000000000000000000000000000000000000 DUP2 MSTORE POP DUP2 MSTORE POP PUSH1 0x2 PUSH1 0x0 DUP3 ADD MLOAD DUP2 PUSH1 0x0 ADD SSTORE PUSH1 0x20 DUP3 ADD MLOAD DUP2 PUSH1 0x1 ADD SWAP1 DUP2 PUSH3 0x8C SWAP2 SWAP1 PUSH3 0x31D JUMP JUMPDEST POP POP POP CALLVALUE DUP1 ISZERO PUSH3 0x9C JUMPI PUSH1 0x0 DUP1 REVERT JUMPDEST POP PUSH3 0x404 JUMP JUMPDEST PUSH1 0x0 DUP2 MLOAD SWAP1 POP SWAP2 SWAP1 POP JUMP JUMPDEST PUSH32 0x4E487B7100000000000000000000000000000000000000000000000000000000 PUSH1 0x0 MSTORE PUSH1 0x41 PUSH1 0x4 MSTORE PUSH1 0x24 PUSH1 0x0 REVERT JUMPDEST PUSH32 0x4E487B7100000000000000000000000000000000000000000000000000000000 PUSH1 0x0 MSTORE PUSH1 0x22 PUSH1 0x4 MSTORE PUSH1 0x24 PUSH1 0x0 REVERT JUMPDEST PUSH1 0x0 PUSH1 0x2 DUP3 DIV SWAP1 POP PUSH1 0x1 DUP3 AND DUP1 PUSH3 0x125 JUMPI PUSH1 0x7F DUP3 AND SWAP2 POP JUMPDEST PUSH1 0x20 DUP3 LT DUP2 SUB PUSH3 0x13B JUMPI PUSH3 0x13A PUSH3 0xDD JUMP JUMPDEST JUMPDEST POP SWAP2 SWAP1 POP JUMP JUMPDEST PUSH1 0x0 DUP2 SWAP1 POP DUP2 PUSH1 0x0 MSTORE PUSH1 0x20 PUSH1 0x0 KECCAK256 SWAP1 POP SWAP2 SWAP1 POP JUMP JUMPDEST PUSH1 0x0 PUSH1 0x20 PUSH1 0x1F DUP4 ADD DIV SWAP1 POP SWAP2 SWAP1 POP JUMP JUMPDEST PUSH1 0x0 DUP3 DUP3 SHL SWAP1 POP SWAP3 SWAP2 POP POP JUMP JUMPDEST PUSH1 0x0 PUSH1 0x8 DUP4 MUL PUSH3 0x1A5 PUSH32 0xFFFFFFFFFFFFFFFFFFFFFFFFFFFFFFFFFFFFFFFFFFFFFFFFFFFFFFFFFFFFFFFF DUP3 PUSH3 0x166 JUMP JUMPDEST PUSH3 0x1B1 DUP7 DUP4 PUSH3 0x166 JUMP JUMPDEST SWAP6 POP DUP1 NOT DUP5 AND SWAP4 POP DUP1 DUP7 AND DUP5 OR SWAP3 POP POP POP SWAP4 SWAP3 POP POP POP JUMP JUMPDEST PUSH1 0x0 DUP2 SWAP1 POP SWAP2 SWAP1 POP JUMP JUMPDEST PUSH1 0x0 DUP2 SWAP1 POP SWAP2 SWAP1 POP JUMP JUMPDEST PUSH1 0x0 PUSH3 0x1FE PUSH3 0x1F8 PUSH3 0x1F2 DUP5 PUSH3 0x1C9 JUMP JUMPDEST PUSH3 0x1D3 JUMP JUMPDEST PUSH3 0x1C9 JUMP JUMPDEST SWAP1 POP SWAP2 SWAP1 POP JUMP JUMPDEST PUSH1 0x0 DUP2 SWAP1 POP SWAP2 SWAP1 POP JUMP JUMPDEST PUSH3 0x21A DUP4 PUSH3 0x1DD JUMP JUMPDEST PUSH3 0x232 PUSH3 0x229 DUP3 PUSH3 0x205 JUMP JUMPDEST DUP5 DUP5 SLOAD PUSH3 0x173 JUMP JUMPDEST DUP3 SSTORE POP POP POP POP JUMP JUMPDEST PUSH1 0x0 SWAP1 JUMP JUMPDEST PUSH3 0x249 PUSH3 0x23A JUMP JUMPDEST PUSH3 0x256 DUP2 DUP5 DUP5 PUSH3 0x20F JUMP JUMPDEST POP POP POP JUMP JUMPDEST JUMPDEST DUP2 DUP2 LT ISZERO PUSH3 0x27E JUMPI PUSH3 0x272 PUSH1 0x0 DUP3 PUSH3 0x23F JUMP JUMPDEST PUSH1 0x1 DUP2 ADD SWAP1 POP PUSH3 0x25C JUMP JUMPDEST POP POP JUMP JUMPDEST PUSH1 0x1F DUP3 GT ISZERO PUSH3 0x2CD JUMPI PUSH3 0x297 DUP2 PUSH3 0x141 JUMP JUMPDEST PUSH3 0x2A2 DUP5 PUSH3 0x156 JUMP JUMPDEST DUP2 ADD PUSH1 0x20 DUP6 LT ISZERO PUSH3 0x2B2 JUMPI DUP2 SWAP1 POP JUMPDEST PUSH3 0x2CA PUSH3 0x2C1 DUP6 PUSH3 0x156 JUMP JUMPDEST DUP4 ADD DUP3 PUSH3 0x25B JUMP JUMPDEST POP POP JUMPDEST POP POP POP JUMP JUMPDEST PUSH1 0x0 DUP3 DUP3 SHR SWAP1 POP SWAP3 SWAP2 POP POP JUMP JUMPDEST PUSH1 0x0 PUSH3 0x2F2 PUSH1 0x0 NOT DUP5 PUSH1 0x8 MUL PUSH3 0x2D2 JUMP JUMPDEST NOT DUP1 DUP4 AND SWAP2 POP POP SWAP3 SWAP2 POP POP JUMP JUMPDEST PUSH1 0x0 PUSH3 0x30D DUP4 DUP4 PUSH3 0x2DF JUMP JUMPDEST SWAP2 POP DUP3 PUSH1 0x2 MUL DUP3 OR SWAP1 POP SWAP3 SWAP2 POP POP JUMP JUMPDEST PUSH3 0x328 DUP3 PUSH3 0xA3 JUMP JUMPDEST PUSH8 0xFFFFFFFFFFFFFFFF DUP2 GT ISZERO PUSH3 0x344 JUMPI PUSH3 0x343 PUSH3 0xAE JUMP JUMPDEST JUMPDEST PUSH3 0x350 DUP3 SLOAD PUSH3 0x10C JUMP JUMPDEST PUSH3 0x35D DUP3 DUP3 DUP6 PUSH3 0x282 JUMP JUMPDEST PUSH1 0x0 PUSH1 0x20 SWAP1 POP PUSH1 0x1F DUP4 GT PUSH1 0x1 DUP2 EQ PUSH3 0x395 JUMPI PUSH1 0x0 DUP5 ISZERO PUSH3 0x380 JUMPI DUP3 DUP8 ADD MLOAD SWAP1 POP JUMPDEST PUSH3 0x38C DUP6 DUP3 PUSH3 0x2FF JUMP JUMPDEST DUP7 SSTORE POP PUSH3 0x3FC JUMP JUMPDEST PUSH1 0x1F NOT DUP5 AND PUSH3 0x3A5 DUP7 PUSH3 0x141 JUMP JUMPDEST PUSH1 0x0 JUMPDEST DUP3 DUP2 LT ISZERO PUSH3 0x3CF JUMPI DUP5 DUP10 ADD MLOAD DUP3 SSTORE PUSH1 0x1 DUP3 ADD SWAP2 POP PUSH1 0x20 DUP6 ADD SWAP5 POP PUSH1 0x20 DUP2 ADD SWAP1 POP PUSH3 0x3A8 JUMP JUMPDEST DUP7 DUP4 LT ISZERO PUSH3 0x3EF JUMPI DUP5 DUP10 ADD MLOAD PUSH3 0x3EB PUSH1 0x1F DUP10 AND DUP3 PUSH3 0x2DF JUMP JUMPDEST DUP4 SSTORE POP JUMPDEST PUSH1 0x1 PUSH1 0x2 DUP9 MUL ADD DUP9 SSTORE POP POP POP JUMPDEST POP POP POP POP POP POP JUMP JUMPDEST PUSH2 0x8D8 DUP1 PUSH3 0x414 PUSH1 0x0 CODECOPY PUSH1 0x0 RETURN INVALID PUSH1 0x80 PUSH1 0x40 MSTORE CALLVALUE DUP1 ISZERO PUSH2 0x10 JUMPI PUSH1 0x0 DUP1 REVERT JUMPDEST POP PUSH1 0x4 CALLDATASIZE LT PUSH2 0x57 JUMPI PUSH1 0x0 CALLDATALOAD PUSH1 0xE0 SHR DUP1 PUSH4 0x2EBCE631 EQ PUSH2 0x5C JUMPI DUP1 PUSH4 0x460F51A9 EQ PUSH2 0x8D JUMPI DUP1 PUSH4 0x69404EBD EQ PUSH2 0xAC JUMPI DUP1 PUSH4 0x6F760F41 EQ PUSH2 0xC8 JUMPI DUP1 PUSH4 0xA009491B EQ PUSH2 0xE4 JUMPI JUMPDEST PUSH1 0x0 DUP1 REVERT JUMPDEST PUSH2 0x76 PUSH1 0x4 DUP1 CALLDATASIZE SUB DUP2 ADD SWAP1 PUSH2 0x71 SWAP2 SWAP1 PUSH2 0x31C JUMP JUMPDEST PUSH2 0x102 JUMP JUMPDEST PUSH1 0x40 MLOAD PUSH2 0x84 SWAP3 SWAP2 SWAP1 PUSH2 0x3E8 JUMP JUMPDEST PUSH1 0x40 MLOAD DUP1 SWAP2 SUB SWAP1 RETURN JUMPDEST PUSH2 0x95 PUSH2 0x1BE JUMP JUMPDEST PUSH1 0x40 MLOAD PUSH2 0xA3 SWAP3 SWAP2 SWAP1 PUSH2 0x3E8 JUMP JUMPDEST PUSH1 0x40 MLOAD DUP1 SWAP2 SUB SWAP1 RETURN JUMPDEST PUSH2 0xC6 PUSH1 0x4 DUP1 CALLDATASIZE SUB DUP2 ADD SWAP1 PUSH2 0xC1 SWAP2 SWAP1 PUSH2 0x31C JUMP JUMPDEST PUSH2 0x258 JUMP JUMPDEST STOP JUMPDEST PUSH2 0xE2 PUSH1 0x4 DUP1 CALLDATASIZE SUB DUP2 ADD SWAP1 PUSH2 0xDD SWAP2 SWAP1 PUSH2 0x54D JUMP JUMPDEST PUSH2 0x262 JUMP JUMPDEST STOP JUMPDEST PUSH2 0xEC PUSH2 0x2C8 JUMP JUMPDEST PUSH1 0x40 MLOAD PUSH2 0xF9 SWAP2 SWAP1 PUSH2 0x5A9 JUMP JUMPDEST PUSH1 0x40 MLOAD DUP1 SWAP2 SUB SWAP1 RETURN JUMPDEST PUSH1 0x4 DUP2 DUP2 SLOAD DUP2 LT PUSH2 0x112 JUMPI PUSH1 0x0 DUP1 REVERT JUMPDEST SWAP1 PUSH1 0x0 MSTORE PUSH1 0x20 PUSH1 0x0 KECCAK256 SWAP1 PUSH1 0x2 MUL ADD PUSH1 0x0 SWAP2 POP SWAP1 POP DUP1 PUSH1 0x0 ADD SLOAD SWAP1 DUP1 PUSH1 0x1 ADD DUP1 SLOAD PUSH2 0x13B SWAP1 PUSH2 0x5F3 JUMP JUMPDEST DUP1 PUSH1 0x1F ADD PUSH1 0x20 DUP1 SWAP2 DIV MUL PUSH1 0x20 ADD PUSH1 0x40 MLOAD SWAP1 DUP2 ADD PUSH1 0x40 MSTORE DUP1 SWAP3 SWAP2 SWAP1 DUP2 DUP2 MSTORE PUSH1 0x20 ADD DUP3 DUP1 SLOAD PUSH2 0x167 SWAP1 PUSH2 0x5F3 JUMP JUMPDEST DUP1 ISZERO PUSH2 0x1B4 JUMPI DUP1 PUSH1 0x1F LT PUSH2 0x189 JUMPI PUSH2 0x100 DUP1 DUP4 SLOAD DIV MUL DUP4 MSTORE SWAP2 PUSH1 0x20 ADD SWAP2 PUSH2 0x1B4 JUMP JUMPDEST DUP3 ADD SWAP2 SWAP1 PUSH1 0x0 MSTORE PUSH1 0x20 PUSH1 0x0 KECCAK256 SWAP1 JUMPDEST DUP2 SLOAD DUP2 MSTORE SWAP1 PUSH1 0x1 ADD SWAP1 PUSH1 0x20 ADD DUP1 DUP4 GT PUSH2 0x197 JUMPI DUP3 SWAP1 SUB PUSH1 0x1F AND DUP3 ADD SWAP2 JUMPDEST POP POP POP POP POP SWAP1 POP DUP3 JUMP JUMPDEST PUSH1 0x2 DUP1 PUSH1 0x0 ADD SLOAD SWAP1 DUP1 PUSH1 0x1 ADD DUP1 SLOAD PUSH2 0x1D5 SWAP1 PUSH2 0x5F3 JUMP JUMPDEST DUP1 PUSH1 0x1F ADD PUSH1 0x20 DUP1 SWAP2 DIV MUL PUSH1 0x20 ADD PUSH1 0x40 MLOAD SWAP1 DUP2 ADD PUSH1 0x40 MSTORE DUP1 SWAP3 SWAP2 SWAP1 DUP2 DUP2 MSTORE PUSH1 0x20 ADD DUP3 DUP1 SLOAD PUSH2 0x201 SWAP1 PUSH2 0x5F3 JUMP JUMPDEST DUP1 ISZERO PUSH2 0x24E JUMPI DUP1 PUSH1 0x1F LT PUSH2 0x223 JUMPI PUSH2 0x100 DUP1 DUP4 SLOAD DIV MUL DUP4 MSTORE SWAP2 PUSH1 0x20 ADD SWAP2 PUSH2 0x24E JUMP JUMPDEST DUP3 ADD SWAP2 SWAP1 PUSH1 0x0 MSTORE PUSH1 0x20 PUSH1 0x0 KECCAK256 SWAP1 JUMPDEST DUP2 SLOAD DUP2 MSTORE SWAP1 PUSH1 0x1 ADD SWAP1 PUSH1 0x20 ADD DUP1 DUP4 GT PUSH2 0x231 JUMPI DUP3 SWAP1 SUB PUSH1 0x1F AND DUP3 ADD SWAP2 JUMPDEST POP POP POP POP POP SWAP1 POP DUP3 JUMP JUMPDEST DUP1 PUSH1 0x1 DUP2 SWAP1 SSTORE POP POP JUMP JUMPDEST PUSH1 0x4 PUSH1 0x40 MLOAD DUP1 PUSH1 0x40 ADD PUSH1 0x40 MSTORE DUP1 DUP4 DUP2 MSTORE PUSH1 0x20 ADD DUP5 DUP2 MSTORE POP SWAP1 DUP1 PUSH1 0x1 DUP2 SLOAD ADD DUP1 DUP3 SSTORE DUP1 SWAP2 POP POP PUSH1 0x1 SWAP1 SUB SWAP1 PUSH1 0x0 MSTORE PUSH1 0x20 PUSH1 0x0 KECCAK256 SWAP1 PUSH1 0x2 MUL ADD PUSH1 0x0 SWAP1 SWAP2 SWAP1 SWAP2 SWAP1 SWAP2 POP PUSH1 0x0 DUP3 ADD MLOAD DUP2 PUSH1 0x0 ADD SSTORE PUSH1 0x20 DUP3 ADD MLOAD DUP2 PUSH1 0x1 ADD SWAP1 DUP2 PUSH2 0x2C1 SWAP2 SWAP1 PUSH2 0x7D0 JUMP JUMPDEST POP POP POP POP POP JUMP JUMPDEST PUSH1 0x0 PUSH1 0x1 SLOAD SWAP1 POP SWAP1 JUMP JUMPDEST PUSH1 0x0 PUSH1 0x40 MLOAD SWAP1 POP SWAP1 JUMP JUMPDEST PUSH1 0x0 DUP1 REVERT JUMPDEST PUSH1 0x0 DUP1 REVERT JUMPDEST PUSH1 0x0 DUP2 SWAP1 POP SWAP2 SWAP1 POP JUMP JUMPDEST PUSH2 0x2F9 DUP2 PUSH2 0x2E6 JUMP JUMPDEST DUP2 EQ PUSH2 0x304 JUMPI PUSH1 0x0 DUP1 REVERT JUMPDEST POP JUMP JUMPDEST PUSH1 0x0 DUP2 CALLDATALOAD SWAP1 POP PUSH2 0x316 DUP2 PUSH2 0x2F0 JUMP JUMPDEST SWAP3 SWAP2 POP POP JUMP JUMPDEST PUSH1 0x0 PUSH1 0x20 DUP3 DUP5 SUB SLT ISZERO PUSH2 0x332 JUMPI PUSH2 0x331 PUSH2 0x2DC JUMP JUMPDEST JUMPDEST PUSH1 0x0 PUSH2 0x340 DUP5 DUP3 DUP6 ADD PUSH2 0x307 JUMP JUMPDEST SWAP2 POP POP SWAP3 SWAP2 POP POP JUMP JUMPDEST PUSH2 0x352 DUP2 PUSH2 0x2E6 JUMP JUMPDEST DUP3 MSTORE POP POP JUMP JUMPDEST PUSH1 0x0 DUP2 MLOAD SWAP1 POP SWAP2 SWAP1 POP JUMP JUMPDEST PUSH1 0x0 DUP3 DUP3 MSTORE PUSH1 0x20 DUP3 ADD SWAP1 POP SWAP3 SWAP2 POP POP JUMP JUMPDEST PUSH1 0x0 JUMPDEST DUP4 DUP2 LT ISZERO PUSH2 0x392 JUMPI DUP1 DUP3 ADD MLOAD DUP2 DUP5 ADD MSTORE PUSH1 0x20 DUP2 ADD SWAP1 POP PUSH2 0x377 JUMP JUMPDEST PUSH1 0x0 DUP5 DUP5 ADD MSTORE POP POP POP POP JUMP JUMPDEST PUSH1 0x0 PUSH1 0x1F NOT PUSH1 0x1F DUP4 ADD AND SWAP1 POP SWAP2 SWAP1 POP JUMP JUMPDEST PUSH1 0x0 PUSH2 0x3BA DUP3 PUSH2 0x358 JUMP JUMPDEST PUSH2 0x3C4 DUP2 DUP6 PUSH2 0x363 JUMP JUMPDEST SWAP4 POP PUSH2 0x3D4 DUP2 DUP6 PUSH1 0x20 DUP7 ADD PUSH2 0x374 JUMP JUMPDEST PUSH2 0x3DD DUP2 PUSH2 0x39E JUMP JUMPDEST DUP5 ADD SWAP2 POP POP SWAP3 SWAP2 POP POP JUMP JUMPDEST PUSH1 0x0 PUSH1 0x40 DUP3 ADD SWAP1 POP PUSH2 0x3FD PUSH1 0x0 DUP4 ADD DUP6 PUSH2 0x349 JUMP JUMPDEST DUP2 DUP2 SUB PUSH1 0x20 DUP4 ADD MSTORE PUSH2 0x40F DUP2 DUP5 PUSH2 0x3AF JUMP JUMPDEST SWAP1 POP SWAP4 SWAP3 POP POP POP JUMP JUMPDEST PUSH1 0x0 DUP1 REVERT JUMPDEST PUSH1 0x0 DUP1 REVERT JUMPDEST PUSH32 0x4E487B7100000000000000000000000000000000000000000000000000000000 PUSH1 0x0 MSTORE PUSH1 0x41 PUSH1 0x4 MSTORE PUSH1 0x24 PUSH1 0x0 REVERT JUMPDEST PUSH2 0x45A DUP3 PUSH2 0x39E JUMP JUMPDEST DUP2 ADD DUP2 DUP2 LT PUSH8 0xFFFFFFFFFFFFFFFF DUP3 GT OR ISZERO PUSH2 0x479 JUMPI PUSH2 0x478 PUSH2 0x422 JUMP JUMPDEST JUMPDEST DUP1 PUSH1 0x40 MSTORE POP POP POP JUMP JUMPDEST PUSH1 0x0 PUSH2 0x48C PUSH2 0x2D2 JUMP JUMPDEST SWAP1 POP PUSH2 0x498 DUP3 DUP3 PUSH2 0x451 JUMP JUMPDEST SWAP2 SWAP1 POP JUMP JUMPDEST PUSH1 0x0 PUSH8 0xFFFFFFFFFFFFFFFF DUP3 GT ISZERO PUSH2 0x4B8 JUMPI PUSH2 0x4B7 PUSH2 0x422 JUMP JUMPDEST JUMPDEST PUSH2 0x4C1 DUP3 PUSH2 0x39E JUMP JUMPDEST SWAP1 POP PUSH1 0x20 DUP2 ADD SWAP1 POP SWAP2 SWAP1 POP JUMP JUMPDEST DUP3 DUP2 DUP4 CALLDATACOPY PUSH1 0x0 DUP4 DUP4 ADD MSTORE POP POP POP JUMP JUMPDEST PUSH1 0x0 PUSH2 0x4F0 PUSH2 0x4EB DUP5 PUSH2 0x49D JUMP JUMPDEST PUSH2 0x482 JUMP JUMPDEST SWAP1 POP DUP3 DUP2 MSTORE PUSH1 0x20 DUP2 ADD DUP5 DUP5 DUP5 ADD GT ISZERO PUSH2 0x50C JUMPI PUSH2 0x50B PUSH2 0x41D JUMP JUMPDEST JUMPDEST PUSH2 0x517 DUP5 DUP3 DUP6 PUSH2 0x4CE JUMP JUMPDEST POP SWAP4 SWAP3 POP POP POP JUMP JUMPDEST PUSH1 0x0 DUP3 PUSH1 0x1F DUP4 ADD SLT PUSH2 0x534 JUMPI PUSH2 0x533 PUSH2 0x418 JUMP JUMPDEST JUMPDEST DUP2 CALLDATALOAD PUSH2 0x544 DUP5 DUP3 PUSH1 0x20 DUP7 ADD PUSH2 0x4DD JUMP JUMPDEST SWAP2 POP POP SWAP3 SWAP2 POP POP JUMP JUMPDEST PUSH1 0x0 DUP1 PUSH1 0x40 DUP4 DUP6 SUB SLT ISZERO PUSH2 0x564 JUMPI PUSH2 0x563 PUSH2 0x2DC JUMP JUMPDEST JUMPDEST PUSH1 0x0 DUP4 ADD CALLDATALOAD PUSH8 0xFFFFFFFFFFFFFFFF DUP2 GT ISZERO PUSH2 0x582 JUMPI PUSH2 0x581 PUSH2 0x2E1 JUMP JUMPDEST JUMPDEST PUSH2 0x58E DUP6 DUP3 DUP7 ADD PUSH2 0x51F JUMP JUMPDEST SWAP3 POP POP PUSH1 0x20 PUSH2 0x59F DUP6 DUP3 DUP7 ADD PUSH2 0x307 JUMP JUMPDEST SWAP2 POP POP SWAP3 POP SWAP3 SWAP1 POP JUMP JUMPDEST PUSH1 0x0 PUSH1 0x20 DUP3 ADD SWAP1 POP PUSH2 0x5BE PUSH1 0x0 DUP4 ADD DUP5 PUSH2 0x349 JUMP JUMPDEST SWAP3 SWAP2 POP POP JUMP JUMPDEST PUSH32 0x4E487B7100000000000000000000000000000000000000000000000000000000 PUSH1 0x0 MSTORE PUSH1 0x22 PUSH1 0x4 MSTORE PUSH1 0x24 PUSH1 0x0 REVERT JUMPDEST PUSH1 0x0 PUSH1 0x2 DUP3 DIV SWAP1 POP PUSH1 0x1 DUP3 AND DUP1 PUSH2 0x60B JUMPI PUSH1 0x7F DUP3 AND SWAP2 POP JUMPDEST PUSH1 0x20 DUP3 LT DUP2 SUB PUSH2 0x61E JUMPI PUSH2 0x61D PUSH2 0x5C4 JUMP JUMPDEST JUMPDEST POP SWAP2 SWAP1 POP JUMP JUMPDEST PUSH1 0x0 DUP2 SWAP1 POP DUP2 PUSH1 0x0 MSTORE PUSH1 0x20 PUSH1 0x0 KECCAK256 SWAP1 POP SWAP2 SWAP1 POP JUMP JUMPDEST PUSH1 0x0 PUSH1 0x20 PUSH1 0x1F DUP4 ADD DIV SWAP1 POP SWAP2 SWAP1 POP JUMP JUMPDEST PUSH1 0x0 DUP3 DUP3 SHL SWAP1 POP SWAP3 SWAP2 POP POP JUMP JUMPDEST PUSH1 0x0 PUSH1 0x8 DUP4 MUL PUSH2 0x686 PUSH32 0xFFFFFFFFFFFFFFFFFFFFFFFFFFFFFFFFFFFFFFFFFFFFFFFFFFFFFFFFFFFFFFFF DUP3 PUSH2 0x649 JUMP JUMPDEST PUSH2 0x690 DUP7 DUP4 PUSH2 0x649 JUMP JUMPDEST SWAP6 POP DUP1 NOT DUP5 AND SWAP4 POP DUP1 DUP7 AND DUP5 OR SWAP3 POP POP POP SWAP4 SWAP3 POP POP POP JUMP JUMPDEST PUSH1 0x0 DUP2 SWAP1 POP SWAP2 SWAP1 POP JUMP JUMPDEST PUSH1 0x0 PUSH2 0x6CD PUSH2 0x6C8 PUSH2 0x6C3 DUP5 PUSH2 0x2E6 JUMP JUMPDEST PUSH2 0x6A8 JUMP JUMPDEST PUSH2 0x2E6 JUMP JUMPDEST SWAP1 POP SWAP2 SWAP1 POP JUMP JUMPDEST PUSH1 0x0 DUP2 SWAP1 POP SWAP2 SWAP1 POP JUMP JUMPDEST PUSH2 0x6E7 DUP4 PUSH2 0x6B2 JUMP JUMPDEST PUSH2 0x6FB PUSH2 0x6F3 DUP3 PUSH2 0x6D4 JUMP JUMPDEST DUP5 DUP5 SLOAD PUSH2 0x656 JUMP JUMPDEST DUP3 SSTORE POP POP POP POP JUMP JUMPDEST PUSH1 0x0 SWAP1 JUMP JUMPDEST PUSH2 0x710 PUSH2 0x703 JUMP JUMPDEST PUSH2 0x71B DUP2 DUP5 DUP5 PUSH2 0x6DE JUMP JUMPDEST POP POP POP JUMP JUMPDEST JUMPDEST DUP2 DUP2 LT ISZERO PUSH2 0x73F JUMPI PUSH2 0x734 PUSH1 0x0 DUP3 PUSH2 0x708 JUMP JUMPDEST PUSH1 0x1 DUP2 ADD SWAP1 POP PUSH2 0x721 JUMP JUMPDEST POP POP JUMP JUMPDEST PUSH1 0x1F DUP3 GT ISZERO PUSH2 0x784 JUMPI PUSH2 0x755 DUP2 PUSH2 0x624 JUMP JUMPDEST PUSH2 0x75E DUP5 PUSH2 0x639 JUMP JUMPDEST DUP2 ADD PUSH1 0x20 DUP6 LT ISZERO PUSH2 0x76D JUMPI DUP2 SWAP1 POP JUMPDEST PUSH2 0x781 PUSH2 0x779 DUP6 PUSH2 0x639 JUMP JUMPDEST DUP4 ADD DUP3 PUSH2 0x720 JUMP JUMPDEST POP POP JUMPDEST POP POP POP JUMP JUMPDEST PUSH1 0x0 DUP3 DUP3 SHR SWAP1 POP SWAP3 SWAP2 POP POP JUMP JUMPDEST PUSH1 0x0 PUSH2 0x7A7 PUSH1 0x0 NOT DUP5 PUSH1 0x8 MUL PUSH2 0x789 JUMP JUMPDEST NOT DUP1 DUP4 AND SWAP2 POP POP SWAP3 SWAP2 POP POP JUMP JUMPDEST PUSH1 0x0 PUSH2 0x7C0 DUP4 DUP4 PUSH2 0x796 JUMP JUMPDEST SWAP2 POP DUP3 PUSH1 0x2 MUL DUP3 OR SWAP1 POP SWAP3 SWAP2 POP POP JUMP JUMPDEST PUSH2 0x7D9 DUP3 PUSH2 0x358 JUMP JUMPDEST PUSH8 0xFFFFFFFFFFFFFFFF DUP2 GT ISZERO PUSH2 0x7F2 JUMPI PUSH2 0x7F1 PUSH2 0x422 JUMP JUMPDEST JUMPDEST PUSH2 0x7FC DUP3 SLOAD PUSH2 0x5F3 JUMP JUMPDEST PUSH2 0x807 DUP3 DUP3 DUP6 PUSH2 0x743 JUMP JUMPDEST PUSH1 0x0 PUSH1 0x20 SWAP1 POP PUSH1 0x1F DUP4 GT PUSH1 0x1 DUP2 EQ PUSH2 0x83A JUMPI PUSH1 0x0 DUP5 ISZERO PUSH2 0x828 JUMPI DUP3 DUP8 ADD MLOAD SWAP1 POP JUMPDEST PUSH2 0x832 DUP6 DUP3 PUSH2 0x7B4 JUMP JUMPDEST DUP7 SSTORE POP PUSH2 0x89A JUMP JUMPDEST PUSH1 0x1F NOT DUP5 AND PUSH2 0x848 DUP7 PUSH2 0x624 JUMP JUMPDEST PUSH1 0x0 JUMPDEST DUP3 DUP2 LT ISZERO PUSH2 0x870 JUMPI DUP5 DUP10 ADD MLOAD DUP3 SSTORE PUSH1 0x1 DUP3 ADD SWAP2 POP PUSH1 0x20 DUP6 ADD SWAP5 POP PUSH1 0x20 DUP2 ADD SWAP1 POP PUSH2 0x84B JUMP JUMPDEST DUP7 DUP4 LT ISZERO PUSH2 0x88D JUMPI DUP5 DUP10 ADD MLOAD PUSH2 0x889 PUSH1 0x1F DUP10 AND DUP3 PUSH2 0x796 JUMP JUMPDEST DUP4 SSTORE POP JUMPDEST PUSH1 0x1 PUSH1 0x2 DUP9 MUL ADD DUP9 SSTORE POP POP POP JUMPDEST POP POP POP POP POP POP JUMP INVALID LOG2 PUSH5 0x6970667358 0x22 SLT KECCAK256 INVALID 0xFC CALLDATASIZE SWAP16 PC PUSH10 0xD1E56A687BD1C3970629 0xBE PUSH10 0x1ABEAA7005B10F441EEE 0xC5 MOD 0xA6 LOG1 PUSH5 0x736F6C6343 STOP ADDMOD SLT STOP CALLER "
		},
		"gasEstimates": {
			"creation": {
				"codeDepositCost": "452800",
				"executionCost": "infinite",
				"totalCost": "infinite"
			},
			"external": {
				"Store(uint256)": "22542",
				"addPerson(string,uint256)": "infinite",
				"listOfPeople(uint256)": "infinite",
				"pato()": "infinite",
				"retrieveNumber()": "2503"
			}
		},
		"methodIdentifiers": {
			"Store(uint256)": "69404ebd",
			"addPerson(string,uint256)": "6f760f41",
			"listOfPeople(uint256)": "2ebce631",
			"pato()": "460f51a9",
			"retrieveNumber()": "a009491b"
		}
	},
	"abi": [
		{
			"inputs": [
				{
					"internalType": "uint256",
					"name": "_favoriteNumber",
					"type": "uint256"
				}
			],
			"name": "Store",
			"outputs": [],
			"stateMutability": "nonpayable",
			"type": "function"
		},
		{
			"inputs": [
				{
					"internalType": "string",
					"name": "_name",
					"type": "string"
				},
				{
					"internalType": "uint256",
					"name": "_myFavoriteNumber",
					"type": "uint256"
				}
			],
			"name": "addPerson",
			"outputs": [],
			"stateMutability": "nonpayable",
			"type": "function"
		},
		{
			"inputs": [
				{
					"internalType": "uint256",
					"name": "",
					"type": "uint256"
				}
			],
			"name": "listOfPeople",
			"outputs": [
				{
					"internalType": "uint256",
					"name": "myFavoriteNumber",
					"type": "uint256"
				},
				{
					"internalType": "string",
					"name": "name",
					"type": "string"
				}
			],
			"stateMutability": "view",
			"type": "function"
		},
		{
			"inputs": [],
			"name": "pato",
			"outputs": [
				{
					"internalType": "uint256",
					"name": "myFavoriteNumber",
					"type": "uint256"
				},
				{
					"internalType": "string",
					"name": "name",
					"type": "string"
				}
			],
			"stateMutability": "view",
			"type": "function"
		},
		{
			"inputs": [],
			"name": "retrieveNumber",
			"outputs": [
				{
					"internalType": "uint256",
					"name": "",
					"type": "uint256"
				}
			],
			"stateMutability": "view",
			"type": "function"
		}
	]
}